:100000000C942A000C94A8020C943C000C943C0024
:100010000C943C000C943C000C943C000C943C0070
:100020000C943C000C943C000C943C000C943C0060
:100030000C943C000C943C000C943C000C943C0050
:100040000C943C000C943C000C943C000C943C0040
:100050000C943C0011241FBECFE5D8E0DEBFCDBF1D
:1000600020E0A0E6B0E001C01D92A336B207E1F7A0
:100070000E9409020C9495050C9400000E94D50280
:1000800067E08AE390E00E942C0267E084E390E05E
:100090000E942C020E94E00261E080E00E942F0298
:1000A00081E00E94910284ED91E00E949E0262E054
:1000B00081E390E00E9405020E94D1020895CF934F
:1000C000C0E025C041E062E085E390E00E94DA01F3
:1000D00041E062E08BE390E00E94DA0164EF71E0BE
:1000E00080E090E00E94E70240E062E085E390E07B
:1000F0000E94DA0140E062E08BE390E00E94DA01C6
:1001000064EF71E080E090E00E94E702CF5FC530CD
:10011000C8F240E062E085E390E00E94DA0140E04E
:1001200062E08BE390E00E94DA0140E061E085E369
:1001300090E00E94DA0141E060E085E390E00E94F7
:10014000DA0140E060E08BE390E00E94DA0168E8C9
:1001500073E180E090E00E94E70240E060E08BE322
:1001600090E00E94DA0140E061E08BE390E00E94C1
:10017000DA0140E062E08BE390E00E94DA0140E0C7
:1001800060E085E390E00E94DA0140E061E085E311
:1001900090E00E94DA0140E062E085E390E00E9496
:1001A000DA01109260000E94800180E0CF910895F2
:1001B000CF9340E060E08BE390E00E94DA0140E002
:1001C00061E08BE390E00E94DA0140E062E08BE3C3
:1001D00090E00E94DA0140E060E085E390E00E9458
:1001E000DA0140E061E085E390E00E94DA0140E05E
:1001F00062E085E390E00E94DA01D89B20C041E0F4
:1002000061E085E390E00E94DA0141E060E08BE389
:1002100090E00E94DA0168E873E180E090E00E94DB
:10022000E70240E060E08BE390E00E94DA0140E00A
:1002300061E085E390E00E94DA01C0E05CC0D999FA
:100240002AC0DA992AC0C1E056C041E062E085E3E5
:1002500090E00E94DA0141E062E08BE390E00E94CE
:10026000DA0164EF71E080E090E00E94E70240E094
:1002700062E085E390E00E94DA0140E062E08BE317
:1002800090E00E94DA0164EF71E080E090E00E946B
:10029000E702CF5F03C0C0E001C0C0E0C530A8F2F4
:1002A00040E062E085E390E00E94DA0140E062E035
:1002B0008BE390E00E94DA0141E061E085E390E0A9
:1002C0000E94DA0141E060E08BE390E00E94DA01F5
:1002D00068E873E180E090E00E94E70240E061E0BE
:1002E00085E390E00E94DA0140E060E08BE390E07B
:1002F0000E94DA01C0E00E945F008C2FCF91089528
:10030000CF9380916000882321F0813009F443C0AD
:1003100044C041E060E08BE390E00E94DA0168E8CD
:1003200073E180E090E00E94E70240E060E08BE350
:1003300090E00E94DA0141E061E08BE390E00E94EE
:10034000DA0168E873E180E090E00E94E70240E0B3
:1003500061E08BE390E00E94DA01C0E019C041E067
:1003600062E08BE390E00E94DA0164EF71E080E0EC
:1003700090E00E94E70240E062E08BE390E00E94A0
:10038000DA0164EF71E080E090E00E94E702CF5F65
:10039000C53028F302C00E94D800109260000E946D
:1003A000800181E0CF91089581E0809360000E94F8
:1003B00080010895413089F018F04230D1F008955D
:1003C000FC01408121E030E002C0220F331F6A951A
:1003D000E2F72095242320830895FC01408121E049
:1003E00030E002C0220F331F6A95E2F7242B2083EE
:1003F0000895FC01408121E030E002C0220F331F4C
:100400006A95E2F724272083089540E00E940E02B7
:1004100008950E943E000E948001FDCF442319F000
:10042000413071F00895FC01408121E030E002C0CC
:10043000220F331F6A95E2F7209524232083089525
:10044000FC01408121E030E002C0220F331F6A9599
:10045000E2F7242B20830895FC0160830895813006
:1004600059F120F0823009F44DC00895613099F0BF
:10047000C8F0623049F06330D9F485B78E7F85BF0C
:1004800085B78D7F85BF14C085B7816085BF85B76F
:100490008D7F85BF0DC085B78E7F85BF85B7826094
:1004A00085BF06C085B7816085BF85B7826085BF7F
:1004B0008BB780648BBF0895613099F0C8F06230CB
:1004C00049F06330D9F485B78B7F85BF85B7877FC7
:1004D00085BF14C085B7846085BF85B7877F85BF1A
:1004E0000DC085B78B7F85BF85B7886085BF06C087
:1004F00085B7846085BF85B7886085BF8BB7806806
:100500008BBF0895662331F0613039F484B78F7B57
:1005100084BF03C084B7806484BF8BB780628BBF05
:100520000895882319F0813029F008958AB78F77CC
:100530008ABF08958AB780688ABF0895009731F00E
:10054000909362008093610081E0089583E00895B4
:100550001F920F920FB60F9211242F933F934F9338
:100560005F936F937F938F939F93AF93BF93EF931B
:10057000FF93E0916100F0916200309709F00995D6
:10058000FF91EF91BF91AF919F918F917F916F916B
:100590005F914F913F912F910F900FBE0F901F9041
:1005A00018958FB780688FBF089587E08ABB17BA08
:1005B00084BB11BA1BBA18BA15BA84E082BB08957D
:1005C00083B78F7B83BF83B7877F83BF08958F9265
:1005D0009F92AF92BF92CF92DF92EF92FF9223B79A
:1005E0002E7F23BF23B72D7F23BF23B7246023BFD4
:1005F0000E94A2046B017C0127E137EB41ED50E43E
:100600000E94FC038823C4F4A701960167E177EBFD
:1006100081ED90E40E94780327E137EB41ED5CE344
:100620000E9401040E94730462BF08B600FEFDCF61
:1006300088B7816088BF52C027E137EB41ED50E4B5
:10064000C701B6010E94FC03811108C012BE08B6A2
:1006500000FEFDCF88B7816088BF40C027E137EB3F
:1006600041ED50E4C701B6010E9401040E94E50378
:100670000E9473044B015C0127E137EB41ED5CE321
:10068000C701B6010E9401046B017C01C501B401E0
:100690000E94A2049B01AC01C701B6010E940104A3
:1006A0009B01AC0160E070E080E893E40E94780375
:1006B0000E94730462BF40E050E0BA010AC008B66D
:1006C00000FEFDCF88B7816088BF4F5F5F4F6F4FDF
:1006D0007F4F481559056A057B0588F313BEFF90C7
:1006E000EF90DF90CF90BF90AF909F908F90089544
:1006F0005058BB27AA270E9490030C9443050E94E0
:10070000350538F00E943C0520F039F49F3F19F47C
:1007100026F40C9432050EF4E095E7FB0C940305E7
:10072000E92F0E94540558F3BA176207730784072C
:10073000950720F079F4A6F50C948E050EF4E0955B
:100740000B2EBA2FA02D0B01B90190010C01CA018B
:10075000A0011124FF27591B99F0593F50F4503E36
:1007600068F11A16F040A22F232F342F4427585F28
:10077000F3CF469537952795A795F0405395C9F740
:100780007EF41F16BA0B620B730B840BBAF09150F8
:10079000A1F0FF0FBB1F661F771F881FC2F70EC097
:1007A000BA0F621F731F841F48F48795779567956A
:1007B000B795F7959E3F08F0B0CF9395880F08F056
:1007C0009927EE0F9795879508950E94760590F0EA
:1007D0009F3748F4911116F40C948F0560E070E097
:1007E00080E89FE3089526F01B16611D711D811D91
:1007F0000C9409050C9424050E94DF0408F481E0A0
:1008000008950E9415040C9443050E943C0558F07D
:100810000E94350540F029F45F3F29F00C94030550
:1008200051110C948F050C9432050E94540568F305
:100830009923B1F3552391F3951B550BBB27AA2799
:1008400062177307840738F09F5F5F4F220F331FD3
:10085000441FAA1FA9F335D00E2E3AF0E0E832D09B
:1008600091505040E695001CCAF72BD0FE2F29D09E
:10087000660F771F881FBB1F261737074807AB0770
:10088000B0E809F0BB0B802DBF01FF2793585F4FE5
:100890003AF09E3F510578F00C9403050C948F05B7
:1008A0005F3FE4F3983ED4F3869577956795B795C7
:1008B000F7959F5FC9F7880F911D9695879597F9D2
:1008C0000895E1E0660F771F881FBB1F621773074B
:1008D0008407BA0720F0621B730B840BBA0BEE1F60
:1008E00088F7E09508950E945C0588F09F5798F07E
:1008F000B92F9927B751B0F0E1F0660F771F881F25
:10090000991F1AF0BA95C9F714C0B13091F00E943E
:100910008E05B1E008950C948E05672F782F8827F7
:10092000B85F39F0B93FCCF3869577956795B39565
:10093000D9F73EF490958095709561957F4F8F4FD4
:100940009F4F0895E89409C097FB3EF490958095D9
:10095000709561957F4F8F4F9F4F9923A9F0F92F85
:1009600096E9BB279395F695879577956795B79503
:10097000F111F8CFFAF4BB0F11F460FF1BC06F5FE9
:100980007F4F8F4F9F4F16C0882311F096E911C0FB
:10099000772321F09EE8872F762F05C0662371F01C
:1009A00096E8862F70E060E02AF09A95660F771F30
:1009B000881FDAF7880F9695879597F90895990F0C
:1009C0000008550FAA0BE0E8FEEF16161706E80719
:1009D000F907C0F012161306E407F50798F0621B3A
:1009E000730B840B950B39F40A2661F0232B242B0F
:1009F000252B21F408950A2609F4A140A6958FEF2E
:100A0000811D811D089597F99F6780E870E060E07F
:100A10000895882371F4772321F09850872B762F3F
:100A200007C0662311F499270DC09051862B70E002
:100A300060E02AF09A95660F771F881FDAF7880F13
:100A40009695879597F908959F3F31F0915020F43E
:100A5000879577956795B795880F911D969587959A
:100A600097F908959FEF80EC089500240A941616D4
:100A7000170618060906089500240A94121613068C
:100A8000140605060895092E0394000C11F488231A
:100A900052F0BB0F40F4BF2B11F460FF04C06F5F36
:100AA0007F4F8F4F9F4F089557FD9058440F551F0C
:100AB00059F05F3F71F04795880F97FB991F61F0E0
:100AC0009F3F79F087950895121613061406551F57
:100AD000F2CF4695F1DF08C0161617061806991FC3
:100AE000F1CF869571056105089408950E945C0513
:100AF000A0F0BEE7B91788F4BB279F3860F416163C
:100B0000B11D672F782F8827985FF7CF8695779547
:100B10006795B11D93959639C8F30895E894BB275E
:0E0B200066277727CB0197F90895F894FFCF49
:00000001FF
